:020000001529C0
:100200008A010A140F3982073F3406345B344F34B5
:1002100066346D347D3407347F346F3477347C3406
:1002200039345E347934713408002621472158214D
:100230000313831205183921851840214E210B1D07
:100240001F296321860A532169211A29031783165E
:10025000880189010313831605148514051186018D
:1002600087018801031383128601870188018501B4
:10027000080005183929870A0708002188000800A6
:100280008518402987030708002188000800031308
:1002900083160F140F128F160F1308001030070269
:1002A00003198701080010300602031986010800AF
:1002B0000313831681128111011581140114031394
:1002C000831263210800031383120A3081000B118B
:1002D00008000708060203196E2108008601043091
:0402E0008506080087
:04400E00C430FF3F7C
:00000001FF
